:100000006F00604500000000CE040000CC0400003A
:1000100000000000CC040000000000000000000010
:10002000CC040000CC040000000000000000000030
:10003000CC04000000000000CC0400000000000020
:10004000CC040000CC040000CC040000CC04000070
:10005000CC040000CC040000CC040000CC04000060
:10006000CC040000CC040000CC040000CC04000050
:10007000CC040000CC040000CC040000CC04000040
:10008000CC040000CC040000CC040000CC04000030
:10009000CC040000CC040000CC040000CC04000020
:1000A000CC040000CC040000CC040000CC04000010
:1000B000CC040000DC040000CC040000CC040000F0
:1000C000CC040000CC040000CC040000CC040000F0
:1000D000CC040000CC040000CC04000000000000B0
:1000E000B7F700E09847DC4737F800E0B305E500D4
:1000F00033B5A5003E95032688008326C800330744
:10010000B6403337E600B387A640998FE3C507FEB4
:100110008280938741C1D84313451500B71601402B
:100120009357474012053D8B3A95AA079386068060
:100130000547B6973317A70098CB828079714ECECA
:1001400052CC371A01404AD056CA5AC85EC662C459
:1001500006D622D426D2AA8B1D49014B938941C1D0
:10016000130A0A80854A7D5C83A6C900B3D72B4158
:1001700093C7F7FF858B13D746409207BD8AB69782
:100180002A075297B397FA001CCB13050003893F47
:1001900003A48900130500039374F40011842A0456
:1001A000B3979A0052941CC8253F03A709016342E4
:1001B000070293574740AA07D2979C473D8BB3D776
:1001C000E700858B99C7B3972A01B367FB0013FB40
:1001D000F70FC104B3949A0004C87D19E31689F996
:1001E000B250225492540259F249624AD24AB24B56
:1001F000224C5A85424B45618280411126C2AA8415
:10020000014506C622C42E84293713E504023D3772
:1002100022852D372244B240924405454101D5BD87
:10022000411122C4138481C2AA8513060004130558
:10023000B40106C6EF00302C8547B2407CCC224486
:1002400041018280411122C42A84014506C626C28A
:100250004AC0C13513650402D5350144938441C0B9
:100260001549B307940003C507000504C13DE31A0F
:1002700024FF2244B240924402490545410151BD48
:100280000347550083474500930500F922075D8F1A
:100290008347650003463500C207D98F03477500C1
:1002A00062075D8F938681C2A388B60093562700AC
:1002B00093758700858A938781C263950518238982
:1002C000D7009376170099C683C6270193E64600A8
:1002D0002389D7009376270099C683C6270193E622
:1002E00086002389D7009376070299C683C6270123
:1002F00093E606042389D7009376070899C683C638
:10030000270193E606F82389D70093760710B336C2
:10031000D000937507209386060863980512A38979
:10032000D7009316470163D8060083C6370193E6CA
:100330004600A389D7009376074099C683C6370144
:1003400093E68600A389D7009316370163D8060089
:1003500083C6370193E60601A389D70093162701C8
:1003600063D8060083C6370193E60602A389D70047
:100370009356160093751600858AF9E9238AD700EB
:100380009376860099C683C6470193E64600238A82
:10039000D700118A19C683C6470193E68600238ACF
:1003A000D7009376070199C683C6470193E60604F2
:1003B000238AD7001377070419C703C747011367B8
:1003C00007F8238AE7000346950003478500834624
:1003D000A5002206598E0347B50093554600A38A0F
:1003E000B7002207558F8566FD1611833387E640D7
:1003F000420741839315470031824D8E1183238B31
:10040000C700A38BE7000346D5000347C50083451B
:10041000E5002206598E0347F50022074D8F118310
:100420003387E6404207935646004183238CD7002A
:10043000318293164700558E1183A38CC700238DFC
:10044000E700828093E626009DBD93E62600C1BDAD
:1004500093E6260025B797010020938161FA175192
:100460000020130121BA09651305058873100530B2
:1004700097060000938606B993E6360073905630CF
:100480001385C1C09385C1E101466356B50010C113
:100490001105E34EB5FE171500001305652A938577
:1004A00041C01386C1C06388C500144194C11105C1
:1004B0009105E39AC5FEB7F700E0154798C3856735
:1004C00093872701739017347300203001A03717EA
:1004D00002401C47B7068000D58F1CC75D713ED017
:1004E000B73702409387674083D707003AD286C662
:1004F00096C49AC29EC022DE26DC2ADA2ED832D6D4
:1005000036D442CE46CC4ACA4EC872C676C47AC2E7
:100510007EC013F72700630F075A13D7C74013D4C1
:1005200087400D8B89463D886307D704B736024064
:100530000D4693860640630FC728630F071AB73727
:10054000024009472383E7407254B640A64216434F
:100550008643E2545255C2553256A256125782571C
:100560007248E2485249C249324EA24E124F824F5F
:10057000616173002030938481C839C8B147B307E3
:10058000F402A69783C78711DDDB914693172400F9
:10059000014763D4860013070003BA973737024038
:1005A00013072742BA9703C707001347070423809E
:1005B000E70003C707001377C70F136727002380DF
:1005C000E700B147B307F402A697A38C071085BFD5
:1005D00083D7240099E7B7370240130700F8238137
:1005E000E74283A9C40023890416638E090403D952
:1005F0002400930700044A8463F4270113040004D1
:10060000420441803309894042092286CE85138500
:1006100081C913590901C525239124018147630428
:100620000900B3878900DCC41374F40FB7370240A4
:1006300023808742B737024003C727421347070486
:100640002381E742EDBD83C7140093F70706C1C7B6
:1006500003D72400E30507EE93060004BA8763F48A
:10066000E6009307000483C504001397070185463D
:10067000418393F7F70F6387D502B7360240238093
:10068000F642B737024083C6274293C60604238149
:10069000D74283D72400998F2391F400DC44BA9782
:1006A000DCC471BDB73602402380F642B736024043
:1006B00003C62642134606042381C64283D624007D
:1006C000998E2391D400D444BA96D4C483C604002E
:1006D000E387B6E65DB703C704009547E311F7E685
:1006E000B737024083C6374003C7940093F6060825
:1006F000558FA381E740A1B503D68600420641820B
:1007000041E413971701E35C07E203C781C8A547DB
:10071000938481C8631AF700DC4499EB11C603C5C2
:100720000401938581C9F52383D724008DE72DA883
:1007300003D924003307C940634407003A8432894F
:100740004A86938581C93E857D232391840019C8FB
:10075000B3072501DCC4B737024003C7274213475C
:100760000708F9BD23A604008387140063C50700AA
:1007700085472389F416B7370240238007421307C1
:100780000005B73702406DBD91469317240063D42E
:10079000860013070003BA97373702401307274232
:1007A000BA9703C70700134707082380E7003147BC
:1007B0003307E402938781C8BA9783A50711854759
:1007C000E31FF4D6E38D05D6E30B06D603C505007B
:1007D0008923B5B383C77600E207E187E3D107D663
:1007E000B73702401307A0FD2381E742938781C8F2
:1007F00003D7070103D3270183D567019316870029
:100800002183558F83D6470103C507012394E1C88F
:1008100013970601336767002391B700D8C313739A
:10082000050603C817012E86630C030A0113137310
:10083000030C631A03049305F8FF93F5F50FA94819
:1008400063E5B80E85688A059388084FC6958C4184
:10085000828523910700B7370240238007421307A0
:1008600000FDB7370240E9BB3737024083472742D4
:1008700093F7C70F93E727002301F742C9B181E639
:1008800021872388E71662056185635505221307D2
:1008900000046354C7001306000437370240937600
:1008A000F60F2300D742994613070742630DD81E5F
:1008B00003D72700118F2391E700B73702401307B2
:1008C0000004BDBBE9F2A388E71675BFCDFE03C7E0
:1008D00007172388E70045BFDDF603C71717D5BF05
:1008E0002D4363640305056E13132800130ECE51C8
:1008F0007293032303000283856605639386C66DA6
:100900001303C37303AE0600631EEE00D842938840
:1009100081C8D8C703C7860063D3E5002E8723911B
:10092000E80095B7B106E39F66FCB73702401307AE
:10093000F0FC39B3A384E700B9B703C78700238865
:10094000E7000547E371B7F42391E7002DBF238447
:10095000E700B73802400547A385E7008546114EFA
:100960009388284221431397260081456354DE0073
:10097000930500032E97469783450700850693F558
:10098000F5072300B7008345070093F5F50B230017
:10099000B700E39A66FCC5BD9375F5018948E396F7
:1009A00015F91377F70F51F331473307E4023E97F8
:1009B00083458711BDD913F7060825DB9189B5D585
:1009C000914513172400814663D4850093060003E4
:1009D0003697B736024093862642369789462300DB
:1009E000D70055B59375F5018948E39015F5137750
:1009F000F70F05FF31473307E4023E978345871120
:100A0000E38305E813F706080DD3918999DD914535
:100A100013172400814663D485009306000336979C
:100A2000B73602409386264236978346070093E600
:100A3000360075B723880700E357B0E40546A1B533
:100A4000239807001377F50131CB8948E31F17ED91
:100A500031473307E4023E9783488711E38708EC68
:100A600013F70608E30307EC93F84800E38F08EA5E
:100A7000914813172400814663D48800930600032D
:100A80003697B736024093862642369703470700CB
:100A90000D8B7517133717002388E7000947E354B8
:100AA000B7DE0946CDB323000700B73702402381E4
:100AB000074271B4B737024093872742130700F803
:100AC00019E637370240230007421307000423804A
:100AD000E700B5B43734024013F71700130404409D
:100AE00011CB23A801C8A30104008928854723034B
:100AF000F40099BC13F7470093F7F70F6DDB9147AC
:100B00002303F4001305001EEFF08FDD834654002D
:100B1000138781C8918A8347A70091C693E727006E
:100B20002305F70015B4F59BE5BF2A96AA876393C2
:100B3000C70082802380B7008507D5BF411122C43A
:100B400026C24AC0B737024006C623860740A3869E
:100B50000740B73402403739024023870740938467
:100B60000442938781C913090943138481C92380EF
:100B700004003E85130600048145453F9104930718
:100B80000504E39624FF138781C8B146230CD710D0
:100B90002302D712B736024003C6C640373E024092
:100BA000130E0E411366060C2386C64093160401ED
:100BB000C1822310DE00232A871023288710938503
:100BC00081C8938881C805480543138581C8914E23
:100BD0008D4F214F6300D80763C26F0683C7481249
:100BE000B1CB93F6170013D72740131663008D87F8
:100BF000058B858B41063697B6972A969316180073
:100C0000814263D30E01E142969686069312060155
:100C1000F29693D202012390560099C323AEC810D6
:100C200001CBB38667009A06C106AA9623A0D81204
:100C30003E973A930508B108E31EE8F937370240BA
:100C4000C947130727422300F70011468547094E7D
:100C50003143A14883C64512918A81CE93962700DD
:100C600001486354F60013080003C296BA96238025
:100C7000C60183C64512A18A81CE939627000148FA
:100C80006354F60013080003C296BA962380060048
:100C9000B38667028507B105AA96A38C0610E39B6D
:100CA00017FBB24022449244024941018280411123
:100CB00022C41306F0032A848145050506C6B5350E
:100CC000930710F82300F4008547A300F4008D4734
:100CD000A301F40013074400938781C2290483C64B
:100CE00007010507FD17A30FD7FEE31A87FEB240E1
:100CF00022444101828081476313F600828033875A
:100D0000F500834607003307F50085072300D70069
:100D1000E5B7357122CD26CB06CF4AC94EC783C76A
:100D20000500B28405462E846380C70EC146638ADF
:100D3000D70A130700086386E7042A896306C500FB
:100D40006304D500631FE5081306F003814513050E
:100D50001100E13B9309F00323002101268663F48F
:100D600099001306F00342064182A2851305110083
:100D700059378504C20493070008C1806312F9083B
:100D80000A840549637F9904034414001306000490
:100D900081458800593B8D476301F40663E487026F
:100DA000630C240389476305F404930700032300BD
:100DB000F104A300810495476312F402054723A6BA
:100DC000E1C229A89147E312F4FE930700432310E0
:100DD000F10423A621C319A08800D13D8800EFF0BB
:100DE0002FC4FA406A44DA444A49BA490D61828004
:100DF000930710282310F104D5B793071038DDBFEF
:100E00008547E310F9FE0A84A947E3FC97FC130623
:100E100040038145E8008344A400013B930710028E
:100E2000938981C22300F10483C789009385190146
:100E3000294613052104A300F104753DC14793859C
:100E400081C263EA97000567939724001307C74A96
:100E5000BA979C438287930710036383F416930722
:100E60000005638AF416930700036380F414930764
:100E700000F8A306F1042307910429A0930700F8C2
:100E8000A306F1048D47A9A2930710F8A306F10465
:100E9000930710302317F10491B7930720F8A306A6
:100EA000F104930720402317F104094493071039F4
:100EB0001946AD05130531052318F10423098104F2
:100EC0001D3D8547A30CF104230D810401BF834719
:100ED000B400130700F8A306E1040D472307E1045B
:100EE0002385F500A307F104130700036386E700D9
:100EF0001307F003E394E7EE8547DCC1C5B593071C
:100F000030F8A306F10491472307F104C1BD8345DE
:100F1000C4000346D4000345B4008346E40093971D
:100F200085000344F400C98F131706015D8F939762
:100F30008601B3E4E700930700F9A306F104A307D1
:100F4000A104C1472308B104A308C1049305F00F0D
:100F50002286C8082307F1042309D104A3098104C8
:100F6000E93693F704F01967638BE7022167E3978B
:100F7000E7E685651307600293858565B387F440CE
:100F8000E3FEE7E41D8F1376F70F1377F70F637413
:100F9000E4001376F40FBE95C808B13B81B58565B2
:100FA0001307C00593850568D1BF8347B4002307A5
:100FB0009104A384F900930700F8A306F10439BD56
:100FC000930700FBA306F10483C79900230791044C
:100FD000A307F10421B5930700FDA306F104E1770F
:100FE000938707352317F10499472308F104FDB3CC
:100FF000B7270240094798C3B717024037070800D0
:1010000023A207001307170898C337079F0098C744
:1010100082801D7186CEA2CCA6CACAC8B71402406F
:10102000CEC6D2C4D6C2DAC05EDE62DC66DAC937AA
:101030009C4C1306800593E7D7019CCC8145138512
:1010400001C3E5342167938781C2130707C3239542
:10105000E700379720401307B7ABD8C76577050778
:101060002398E700130700F8A389E70021675D17BD
:10107000239BE7007D771307F77F8565239CE700B7
:10108000FD591307F0075146938585492800A38A27
:101090003701238DE70023A0070023A20700A13911
:1010A00051462C00138541C137140140A931130466
:1010B00004801C407D771307F70FC19B93E737002F
:1010C0001CC01C400545054B93F7F7F093E7070359
:1010D0001CC01C40371A0140F98F93E707301CC031
:1010E0001C4045777D17F98F0D67D98F1CC01C40B8
:1010F0003707F1FF7D17F98F37070800D98F1CC01C
:10110000C1471CC8C1671CC8EFF0AF80B707040017
:1011100037B503001CC813050598EFE07FFC814537
:101120000545EFF08F8D85450945EFF00F8D8D4515
:101130000D45EFF08F8C81451145EFF00F8C930535
:1011400000051545EFF06F8BB9451945EFF0EF8AB3
:10115000D1454545EFF06F8A81457145EFF0EF8944
:1011600081457545EFF06F892945EFF0AF8D414519
:10117000EFF04F8D0145EFE0DFF91305100EEFE0C2
:10118000FFFB0545EFE0FFF80145EFE09FF8130591
:10119000200EEFE0BFFA0545EFE0BFF7BD45014582
:1011A000EFF0AF855D652328640113050570EFE05E
:1011B0003FF39C4C370701401305001E93E71701CE
:1011C0009CCC1C4F138481C293F707F393E7C70CA1
:1011D0001CCF8327CA010567050793F707F093E73C
:1011E0004708232EFA0089472320FA02DC48138996
:1011F000C1DFD98FDCC8B734024099472380F4405F
:1012000023800440EFE0DFED9D472381F440A3817C
:101210000440930790022380F44023833441EFF08D
:10122000FF91B7E700E0A3806441096723A2E710BC
:10123000B7F700E0984737AB2400DC47938481C8B8
:1012400023A8E1C0130B0BF0138C41C183270C01C1
:1012500063C7070C0145EFE0DFEB1305F00FEFE08C
:10126000FFEDAA8B93FB0B040545EFE09FEA638833
:101270000B0A0145EFE0FFE913051006EFE01FEC54
:10128000814BD14C1305F00FEFE05FEBB3872B01DF
:101290002380A700850BE3979BFF0545EFE07FE7E1
:1012A000930500071D45EFE05FF55146CA856808C4
:1012B00099340347C101930770056312F70603478A
:1012C000D10193076004631CF70481470146CD45B3
:1012D0007808329703470700A146B98F1397870113
:1012E0006187635107100607134777009377F70F5D
:1012F000FD1693F6F60FFDF20506E31BB6FC034759
:10130000F102631EF7006808EFE09FF7B7F700E00F
:101310009847DC47854723A8E1C023A6F1C083A7EF
:10132000C1C085CBB7F700E09447D84783A701C178
:101330003387F640637FEB00B787FF7FFD176808B0
:1013400002CE02D002D63ED23ED4EFE07FF323A6F7
:1013500001C083C75412E39B07EE83AB0412E387FB
:101360000BEE7C4CC1C7130600049305B4015E85E7
:10137000EFF07F98232E040483478400850793F7BA
:10138000F70F2304F40083C72417E39F07EA83C7FA
:101390005412E39B07EA83D72400E39707EAB737A1
:1013A00002409387074083C77700E207E187E3CDD8
:1013B00007E8B7E600E0096623A2C618B73702407F
:1013C000130700042382E742B737024003C767428E
:1013D0001377C70F2383E7428547A382F41223A222
:1013E000C6109DB5860793F7F70F19B71C405840F4
:1013F000D98F89E75E85EFF09F8BBDBF1306F003A1
:10140000814513851B00EFF04FF293070003238003
:10141000FB0083478400294693051401A380FB0049
:1014200013852B00EFF03F8DA5472386FB00A9B75E
:101430001A0330003000300030003000300030003F
:101440003000300030003000310000001E0350003A
:1014500072006F00200043006F006E007400720085
:101460006F006C006C0065007200000026034E00E7
:1014700069006E00740065006E0064006F0020005B
:1014800043006F002E002C0020004C00740064000C
:101490002E00000004030904000000000100000009
:1014A0000200000003000000040000007C0E0000A9
:1014B000880E00009A0E0000CE0E0000FE0E000006
:1014C0006E0E00006E0E00006E0E00006E0E00002C
:1014D0006E0E00006E0E00006E0E00006E0E00001C
:1014E0006E0E00006E0E00006E0E00000E0F00006B
:1014F00068080000CC080000D80800002A09000095
:101500002A0900002A0900002A0900002A0900000F
:10151000520800007E080000C4080000400A0000D5
:10152000980900002A090000E40900002A090000C7
:1015300034090000F80800002A0900003A090000F8
:101540004E090000340A000086080000050115005D
:101550000904A1018530050105091901290A1500B1
:1015600025017501950A5500650081020509190BD1
:10157000290E15002501750195048102750195025A
:1015800081030B01000100A1000B300001000B31B1
:101590000001000B320001000B350001001500278F
:1015A000FFFF0000751095048102C00B3900010097
:1015B000150025073500463B01651475049501812A
:1015C000020509190F2912150025017501950481DD
:1015D000027508953481030600FF8521090175080D
:1015E000953F8103858109027508953F8103850137
:1015F00009037508953F9183851009047508953F87
:101600009183858009057508953F91838582090638
:101610007508953F9183C00009022900010100A0CF
:10162000FA09040000020300000009211101000171
:1016300022CB00070581034000010705010340009C
:101640000100000012010002000000407E05092098
:101650001002010203010000FFFFFFFFFFFFFFFF79
:10166000FFFFFFFFFFFFFFFFB2A1A4466A00088053
:10167000A4466AB2A1000880A4466AA4466A000093
:10168000FFFFFFFFFFFFFFFFFFFFFFFFFFFFFFFF6A
:10169000FFFF03A0FFFFFFFFFFFFFF02FFFFFFFFB2
:1016A000E3FF39FFED010040004000400900EAFF80
:1016B000A1FF3B343B343B34FFFFFFFFFFA4466AEE
:1016C000000880A4466A000880A4466AA4466AFF0F
:1016D0001B1B1DFFFFFFEC008CEC008C00010000C9
:1016E000441600001200000000020000181600005E
:1016F00029000000002200004C150000CB00000073
:10170000002100002A16000009000000000300006C
:101710009414000004000000010309046C1400008C
:1017200026000000020309044C1400001E00000003
:0C17300003030904301400001A0000003C
:08173C00E7E7E7E757000000B2
:00000001FF
