:1000000000800020ED2B00009D2C00009F2C0000A4
:10001000A12C0000A32C0000A52C00000000000073
:10002000000000000000000000000000A72C0000FD
:10003000A92C000000000000AB2C0000050400000B
:100040004D2B0000AF2C0000AF2C0000AF2C0000A7
:10005000AF2C000000000000AF2C000000000000EA
:10006000AF2C0000AF2C0000AF2C0000AF2C000024
:10007000AF2C0000AF2C0000AF2C0000AF2C000014
:10008000AF2C0000AF2C0000AF2C0000AF2C000004
:10009000AF2C0000AF2C0000AF2C0000AF2C0000F4
:1000A000AF2C0000AF2C0000AF2C000000000000BF
:1000B0000000000000000000000000000000000040
:1000C0000000000000000000000000000000000030
:1000D0000000000000000000000000001504000007
:1000E0000000000000000000000000000000000010
:1000F0000000000000000000000000000000000000
:1001000000000000000000000000000000000000EF
:1001100000000000000000000000000000000000DF
:1001200000000000000000000000000000000000CF
:1001300000000000000000000000000000000000BF
:1001400000000000000000000000000000000000AF
:10015000000000000000000000000000000000009F
:10016000000000000000000000000000000000008F
:10017000000000000000000000000000000000007F
:10018000000000000000000000000000000000006F
:10019000000000000000000000000000000000005F
:1001A000000000000000000000000000000000004F
:1001B000000000000000000000000000000000003F
:1001C000000000000000000000000000000000002F
:1001D000000000000000000000000000000000001F
:1001E000000000000000000000000000000000000F
:1001F00000000000000000000000000000000000FF
:100200004E696E74656E646F20436F2E2C204C74A3
:10021000642E0050726F20436F6E74726F6C6C6549
:10022000720030303030303030303030303100001B
:100230004002000000020000130200002202000041
:10024000090409022900010100A07D09040000023F
:100250000300000009211101000122CB0007050164
:100260000340000107058103400001120100020064
:100270000000407E0509201002010203010501155E
:10028000000904A1018530050105091901290A1594
:100290000025017501950A550065008102050919BF
:1002A0000B290E1500250175019504810275019534
:1002B0000281030B01000100A1000B300001000BC3
:1002C000310001000B320001000B35000100150068
:1002D00027FFFF0000751095048102C00B39000153
:1002E00000150025073500463B016514750495018E
:1002F00081020509190F29121500250175019504C0
:1003000081027508953481030600FF852109017576
:1003100008953F8103858109027508953F81038512
:100320000109037508953F918385100904750895A7
:100330003F9183858009057508953F9183858209E2
:10034000067508953F9183C0FFFFFFFFFFFFFFFF8A
:10035000FFFFFFFFFFFFFFFFB2A1A4466A00088076
:10036000A4466AB2A1000880A4466AA4466AFFFFB8
:10037000FFFFFFFFFFFFFFFFFFFFFFFFFFFFFFFF8D
:1003800003A0FFFFFFFFFFFFFF02FFFFFFFFE3FFF1
:1003900039FFED010040004000400900EAFFA1FFE5
:1003A0003B343B343B34FFFFFFFFFFA4466A0008A9
:1003B00080A4466A000880A4466AA4466AFF1B1B04
:1003C0001DFFFFFFEC008CEC008C00000000000023
:1003D000A11B00008D1B0000911B0000A91B000049
:0C03E0005D1C0000CD1D000000000000AE
:0803EC00D4280000010000000C
:1004000002F0E2B9024A136801331360704700BF7B
:1004100020000020002001F0D3BF00004FF08043F7
:1004200080B501220021C3F818159A60544B4FF48F
:100430007A721B68B3FBF2F3013BB3F1807F96B095
:1004400009D24FF0E022E02053614E4B83F82300A5
:10045000072391611361002000F076F900F0E4F8C1
:10046000494B402283F827239DF8043001A823F04C
:1004700001038DF8043002F027FB444B069306A8D5
:1004800002F05AFB02F044FB4FF08043D3F83844AB
:10049000E20702D5002002F097F9A30702D5022057
:1004A00002F092F93A4E3B4FDFF8EC8000F066FB29
:1004B00033683B604FF0000900214FF0FF3000F03F
:1004C00023FF142101A800F0F7F8002832D001AD75
:1004D0000FCD06AC0FC42B6823609DF81830572B46
:1004E00028D19DF81930462B24D1002306AC18469C
:1004F00014F8012B082153405AB2002ABDBF520004
:1005000082F00702D3B25B0001F1FF32A8BFDBB279
:1005100012F0FF01F0D101301328E9D19DF82B2012
:100520009A4207D106A800F039F933683B600123ED
:10053000C8F80030D8F8003093B133683A689B1A95
:10054000322B0DD91422002106A802F025FC6FF0F1
:10055000802306A8CDE9083300F020F9C8F8009000
:10056000002001F0BDFA0028A6D006A800F0D0FABD
:100570000021402306AA084601F0CEFA9CE700BFFE
:100580001400002000ED00E000E100E001040000A4
:10059000200000201C0000201800002000487047A8
:1005A0006B020000004870477D0200000048704761
:1005B0004202000010B560B9124B40F209425A8065
:1005C00001230133DBB20F485B0043F44073038027
:1005D00010BD032813D80C4B53F82040204602F0DE
:1005E0006FFBC3B21F2B28BF1F23064A2046E1180A
:1005F0008842E6D010F8014B22F8024FF8E70020BD
:10060000E6E700BF24000020300200000020704711
:100610000846BDF80020194623B11AB100B9187870
:1006200000F042B9704700004FF080430022C3F849
:10063000002101221A60D3F80021002AFBD0194BB7
:10064000002201215020C3F8FC1FC3F81015C3F885
:100650000C25C3F808051448C3F81425C3F8180579
:100660004FF48170C3F834051048C3F838054FF6CD
:10067000FF70C3F83C05E720C3F824050C48C3F815
:100680001C050C48C3F82C25C3F83015C3F8040525
:100690002120C3F80002C3F80C21C3F810215960CF
:1006A000704700BF00100040141404012110010025
:1006B00057E7E7E7640000200B4BD3F80C2110B597
:1006C0000C460AB9002010BD0022C3F80C21D3F853
:1006D0000034002BF6D0142928BF142403492246E5
:1006E00002F0ACFB2046EEE7001000406400002062
:1006F000064B00F1400250F8041B43F8041B9042E3
:10070000F9D1034B0122DA65704700BF9F0000203A
:100710008400002010B53F2204460021013002F081
:100720003BFB81232370012363702346032203F8DC
:10073000032F044A093412F8011D03F8011FA342D4
:10074000F9D110BD9500002038B5124D044658224D
:100750000021284602F020FB47F630426A800E4A0C
:100760006A6049F201022A818022EA72FF226A73DA
:1007700047F6F772631EEA814FF2FF7245F8084CA4
:100780002A825C424FF07F025C41AA7445F8044C17
:1007900038BD00BF8C000020BB8A204030B54268C5
:1007A000404BC178902415075C74C2F3800448BFA5
:1007B00044F002049C74D50742BF9C7C44F00404BE
:1007C0009C74950742BF9C7C44F008049C74950679
:1007D00042BF9C7C44F040049C74150642BF9C7C44
:1007E00064F07F049C7412F4807F0CBF8024812409
:1007F000950548BF44F00204DC74150542BFDC7C5B
:1008000044F00404DC74540542BFDC7C44F008046A
:10081000DC74D50442BFDC7C44F01004DC74940426
:1008200042BFDC7C44F02004DC74C1F34004CD07FB
:1008300048BF44F002041C750D0742BF1C7D44F004
:1008400004041C754C0742BF197D41F0080119755D
:10085000D10642BF197D41F040011975520642BFD1
:100860001A7D62F07F021A750589418940F6FF7290
:10087000A2EB111189B22C095C750C0144EA153404
:1008800009099C75D975C1898489A2EB111292B2AC
:1008900021091976110141EA1431120959769A7623
:1008A00030BD00BF8400002070B50646A0B01546DC
:1008B0000C4600293AD0002A38D00B78012B52D0B0
:1008C000102B33D0802B1BD0012803D0102801D04F
:1008D00080282BD13F2200210DF1010002F05CFAAB
:1008E0003F2D2A46214628BF3F220DF101008DF8F9
:1008F0000060013502F0A2FA802EADB230D16C4614
:10090000012D13D96478402200210DEB020002F082
:1009100043FA631E032B1BD8DFE803F0020A0F1211
:1009200010A8FFF7F7FE10A8FFF7E2FE20B070BD99
:1009300040F28123ADF84030F5E740F28133F9E72A
:100940004FF48663ADF840306D4B01225A60EAE700
:100950003023052C8DF840308DF84140E3D1F3E78A
:10096000012EE3D16C460A2DE0D93422002113A8D0
:10097000A57A02F011FA21238DF84030604B1A7AE3
:100980008DF84120D3F81120CDF84220D3F815205E
:10099000CDF84620102DB3F81920ADF84A200CD818
:1009A000102D12D8DFE805F0171C24405111111149
:1009B00011111111111111115800312D00F08C80FD
:1009C000502D00F09280302D7ED080238DF84D3058
:1009D0008DF84E5002E080238DF84D30032381E0E6
:1009E00081238DF84D3040F20133ADF84E309AE757
:1009F000D3F80B30CDF853308222424B8DF84D2086
:100A000040F202429B88ADF84E2040F29132ADF8A0
:100A10005020ADF85730022201238DF852208DF876
:100A200059308DF85A207EE7E27A9A7280218DF84B
:100A30004D10302A4FF003018DF84E108DF84F20E5
:100A400083D03F2A7FF46FAF7FE783238DF84D304B
:100A500004238DF84E3066E7627B217BE07AD4F880
:100A60000B50A37BE47B8DF84F0090268DF84D60F2
:100A70008DF850108DF8512010262246FF2115A820
:100A80008DF84E608DF852308DF8534002F084F9A5
:100A900025F0FF02B2F5C04F13D0B2F5004F7FF43E
:100AA00042AF19482623A91A9942BFF43CAF5B1AFA
:100AB000DAB2A242014428BF224615A802F0BEF9CC
:100AC00031E712485C23EEE7E27A5A7280238DF810
:100AD0004D308DF84E5026E7B0225B7A8DF84D20D0
:100AE0008DF84E508DF84F301DE7D0238DF84D30E6
:100AF00048F25033ADF84E3006238DF8503012E7EF
:100B0000840000208F000020480300006E030000D6
:100B100038B5194CE16D054689B104F11B0304F1A8
:100B20005B0253F8041B45F8041B9342F9D10023E0
:100B3000E365237A0133DBB22372012038BDD4E9A7
:100B40000032134302D1FFF7E5FDF2E73F22013007
:100B500002F022F930232B70237A6B70D4F8113015
:100B6000C5F80230D4F81530C5F80630B4F819309D
:100B70006B8109232B73DCE78400002008B500207B
:100B800000F062F930B94FF0E023D3F8F03DDB0715
:100B900000D500BE08BD0378024613F0010011D154
:100BA0001378C3F380015B070FD4137813F00100AF
:100BB0000AD113785B0708D4137843F00403137049
:100BC0000120704700207047084670478388C0782E
:100BD00000F003000228C3F30A0314D003281CD03A
:100BE00001280ED1022940F2FF3208BF4FF4806283
:100BF0009A420ED24FF0E023D3F8F03DDB0700D548
:100C000000BE00207047022904D1B3F5007FF1D166
:100C100001207047402BFBD9ECE7022914BF40228A
:100C20004FF480629A42F3D2E4E730B50A4491422D
:100C300000D330BD4C78052C06D18C7804F07F05AC
:100C400000EB4505E4092B550C782144EFE70A44F5
:100C500092B291424FEA400001D8824201DB121A5F
:100C600092B21046704738B50546D41A0846A9888E
:100C7000A4B29A423CBF04EB4104A4B2B4B1A14275
:100C800005D2914294BF521A521893B26B81994285
:100C900009D9EA882968C2F30E0202FB031102F0A7
:100CA000CDF8012038BD5B1A9BB2F0E72046F9E78A
:100CB00003894289818892B29BB2934236BFC2EBCC
:100CC00041029B1A9B189BB299428CBF00200120C5
:100CD00070470289438910B59BB2044692B2FFF770
:100CE000C2FF61890346024689B2A088FFF7AFFFC1
:100CF0006081184610BD70B5058904460E46ADB238
:100D0000FFF7D6FF10B1E079C00913D0A3882846B9
:100D1000834210D9E2882368C2F30E02314602FBF7
:100D2000003002F08BF8A08801222946FFF78FFFE0
:100D30002081012070BDC01A80B2E9E70023438101
:100D40000381012070470020704700002DE9F04129
:100D5000194E1A4F3278DFF8688005460024E3B256
:100D60009A420DD9D8F8002012EB43130BD14FF063
:100D7000E023D3F8F03DDB0700D500BEBDE8F081ED
:100D80009B1A07EB4313DB682846984701343278F7
:100D9000E3B29A42E3D2382200210A4801F0FCFF74
:100DA0001022FF21084801F0F7FFBDE8F041074895
:100DB0001222FF2101F0F0BFAC010020CC030000A3
:100DC000B0010020B5010020B9010020C9010020B8
:100DD00070B50C4605461646486900F011FE636979
:100DE000324628460121BDE870401847034A0346B1
:100DF00010780BB101F0FEB801F002B9100000202C
:100E000070477047002070470020704700207047EF
:100E10007047704770477047024B5878003818BFCA
:100E200001207047B5010020024B1878C0F3800004
:100E3000704700BFB5010020024B1878FF3818BF7B
:100E400001207047100000202DE9F843254F3B7822
:100E5000FF2B044642D1382200212348234E01F0C3
:100E60009BFF234B234800221A70FFF767FF224B9A
:100E7000224A1A60224B23B13046AFF30080214B47
:100E800018603278DFF88080DFF878900025EBB2C8
:100E90009A420DD9D9F8002012EB43130BD14FF031
:100EA000E023D3F8F03DDB071AD40020BDE8F88337
:100EB0009B1A08EB43135B68002BF0D09847013571
:100EC0003278EBB29A42E2D2104B3C7000222046BC
:100ED0001A6001F08DF8204601F08CF80120E5E75A
:100EE00000BEE2E710000020B5010020AC010020A8
:100EF000B401002004000020E400002000000020D5
:100F000000000000B0010020CC030000A801002078
:100F10002DE9F0434378023B85B005460C46042B8F
:100F200000F28F80DFE813F07E000500A200AA0027
:100F3000CE00674FDFF89C813A78DFF89C9100265D
:100F4000F3B29A4240F2A380D9F8002012EB431387
:100F500040F0A0803A780136F3B29A42F0D25F4B6B
:100F60001B680BB1686898475D4E337858072CD5DD
:100F7000337823F0040333700023CDF80630CDF826
:100F80000A30ADF80E302B788DF8043005238DF83B
:100F90000530544BD3F800801CB9D8F800302046F7
:100FA000984701A908F10400FFF7A5FE07461CB900
:100FB000D8F8003001209847002F73D14FF0E0237C
:100FC000D3F8F03DD90700D500BEF378DA0726D56F
:100FD0000023CDF80630CDF80A30ADF80E302B786E
:100FE0008DF8043003238DF805306B6802933D4B78
:100FF0001E6814B933682046984701A9301DFFF7D1
:101000007AFE054614B9336801209847002D51D166
:101010004FF0E023D3F8F03DDB0700D500BE05B06C
:10102000BDE8F0832E4B1A7822F001021A701A786C
:10103000002122F002021A7059701A7861F38202BC
:101040001A70284B1F6814B93B68204698472946F8
:10105000381DFFF750FE064614B93B68012098473B
:10106000002ED5D069782878224628E01C4B1A78C3
:10107000D707D4D51A7842F00402E1E7184A13786A
:10108000DE07CCD5137823F004031370D9E79B1A3D
:1010900008EB4313DB69002B3FF45CAF69682878E9
:1010A000984757E79DF805109DF804002246FFF782
:1010B000A7FE8AE79DF805109DF804002246FFF779
:1010C0009FFEACE7084A13780133DBB2DDE700BFCF
:1010D000AC010020CC030000B0010020A8010020DA
:1010E000B5010020E4000020B40100207FB54FF4DA
:1010F0000063CDE90130114B03911E68144612B90B
:1011000033681046984701A9301DFFF7F4FD0546E6
:1011100014B933680120984745B94FF0E023D3F85C
:10112000F03DDB0700D500BE04B070BD9DF8051092
:101130009DF804002246FFF763FEF5E7E400002077
:1011400038B50F4B1D788B7803F07F03082B0C46C6
:1011500008D94FF0E023D3F8F03DDB0700D500BEFF
:10116000002038BD074B20469978FFF72FFD002857
:10117000EFD021462846BDE8384000F075BF00BFDB
:1011800010000020B50100202DE9F047DDE90867D7
:1011900081460C4690469A460025A84501DC012070
:1011A0000AE06378052B09D04FF0E023D3F8F03D37
:1011B000DB0700D500BE0020BDE8F087E37803F030
:1011C00003035345F0D121464846FFF7B9FF0028F5
:1011D000EAD0A378DA0914BF3B7033702378013565
:1011E0001C44DAE7CB0901F07F020448263303EB05
:1011F000420300211844FFF7CEBC00BFB501002018
:1012000070B5134C134801F07F0604EB460404EB61
:10121000D1142034A5790078ED0708D54FF0E023EC
:10122000D3F8F03DDB0700D500BE002070BDA579E6
:1012300045F00105A57100F0EBFF0028F6D1A27979
:1012400060F30002A271A27960F38202A271E5E765
:10125000B501002010000020054B01F07F0203EBD8
:10126000420303EBD11191F8260000F00100704712
:10127000B501002010B50C4B18780C4601F02AF887
:101280000A4904F07F0301EB430101EBD41191F80B
:10129000263043F0020381F8263091F8263043F0DF
:1012A000010381F8263010BD10000020B501002098
:1012B00010B50C4B18780C4601F030F80A4904F0D0
:1012C0007F0301EB430101EBD41191F8263023F0A9
:1012D000020381F8263091F8263023F0010381F8CB
:1012E000263010BD10000020B5010020054B01F094
:1012F0007F0203EB420303EBD11191F82600C0F308
:1013000040007047B50100202DE9F04F9B4B1B7842
:10131000FF2B89B03FD0DFF868829A4B1D682C46BE
:10132000002054F8043B9847204605A9FFF7D1FC5C
:101330002B680446012098476CB39DF81530013B9B
:10134000072B00F2D982DFE813F008001300CE0269
:10135000B302BF021C007602C7029DF81400FFF71B
:10136000F5FC00F045FB9DF8183088F80230D4E712
:101370009DF81400FFF7EAFC00F03AFBFFF749FD87
:10138000CBE7814A13784BB94FF0E023D3F8F03D17
:10139000DC0700D500BE09B0BDE8F08F1378013B33
:1013A000DBB21370137803F0FF00002BB5D1744C3F
:1013B0009DF81450237843F00103237094F82630ED
:1013C00060F3000384F8263094F8263060F382033B
:1013D00084F8263094F8273060F3000384F827302F
:1013E00094F8273060F3820384F8273000F008FB7C
:1013F0009DF8182002F06003602B07D14FF0E02326
:10140000D3F8F03DDD072AD500BE28E0402B0BD1F4
:101410005E4800F0F5FA06AA01212846FFF793FC82
:1014200000287FF47AAF1AE002F01F02012A00F0D0
:101430008481022A00F0B381002ADFD1202B20D141
:101440009DF81C300F2B0AD8514A234412781B797F
:1014500093420FD24F4A116811EB43110CD19DF802
:101460001400002100F036FF9DF81400802100F0E8
:1014700031FF52E7F3D1484906AA2846FFF7A8FCF6
:10148000CEE7002BBAD19DF81930092BB6D801A2AE
:1014900052F823F01917000007170000FD13000091
:1014A000F3160000FD130000BD14000049160000F3
:1014B000FD130000D7140000E114000006A800F09E
:1014C000A5FA9DF81A10284600F0A6FD237843F0EF
:1014D0000203237021E763788DF81230012325E1A0
:1014E0009DF81A6063789E4243D063785BB1002117
:1014F000284600F0A3FD284600F040FEA7782846C5
:10150000FFF724FCA7706670002E00F09A80701E12
:10151000C0B2FFF74BF810B14378022B10D04FF058
:10152000E023D3F8F03DDB0700D500BE4FF0E02309
:10153000D3F8F03DDF0700D500BE002363708EE7CF
:10154000C379DFF84CB0C3F38012C3F340131B011F
:1015500043EA4213227822F0300213432370438877
:10156000C31800F109060193019BB34216D8FFF797
:101570004FFC06A9284600F0FFF9CEE61000002037
:10158000B5010020E4000020B4010020470D000058
:10159000AC010020B0010020CC03000073780B2BBD
:1015A00001BFF37802933378F6181CBF012302932E
:1015B0007378042BB3D1019B9BF800109B1B9AB24C
:1015C000B74B4FF0000A5FFA8AF78F4212D21968C0
:1015D00011EB4711A3D0D1F8109003923146284661
:1015E000C8470828039AAE4B814621D982421FD3AF
:1015F00000220DE0AB48791A00EB4111EBE7B1781E
:101600000B4454FA83F301321979FF2987D11F71F2
:101610000299D3B29942F2D83B463146A2484A4693
:10162000FFF703FB9BF80030BB424E449CD276E7A9
:101630009BF800100AF1010A5FFA8AF08142C2D2D7
:101640006DE7FFF7E6FB94E7BDF81A301A0AD8B247
:10165000531E0E2B3FF603AF01A151F823F000BF3C
:101660009D160000BF160000D91600005F14000090
:101670005F140000ED160000BF1600005F140000AC
:101680005F1400005F1400005F1400005F1400008E
:101690005F1400005F140000B5160000FEF77EFF27
:1016A000024600283FF4AAAE122306A9284600F0FD
:1016B00075F9B5E6FFF7A6FB024640B9CFE6022A68
:1016C00007D1FEF773FF024600283FF497AE538818
:1016D000EBE7FFF79BFBEFE7BDF81C10FEF76AFF97
:1016E000024600283FF4BBAE0378DEE7FFF78CFB31
:1016F000F6E7BDF81A30012B7FF4B1AE237843F042
:101700000803237035E7BDF81A30012B7FF4A7AE2C
:10171000237823F00803F4E72378C3F340129B08EF
:1017200003F002031343ADF8123002230DF112024D
:1017300006A9284600F032F9EFE59DF81C300F2B82
:101740003FF68DAE594A234412781B79934222D238
:10175000534A116811EB43113FF481AE06AA2846A3
:10176000FFF736FB00287FF4D8AD9DF8183013F052
:1017700060047FF474AE9DF819300A3B012B3FF6EC
:101780006EAE00F03DF99DF819300A2B7FF4F1AEF2
:101790008DF81240A2E67FF462AE4249DEE79DF882
:1017A0001C1001F07F02082A3FF628AE04EB42022B
:1017B0003E4802EBD1120078127D824213D23848A3
:1017C000066806EB4216B3B99DF8193003F0FD0226
:1017D000012A14D0002B7FF411AE2846FFF786FDB6
:1017E000ADF81200A1E740F090802E4E002BEBD018
:1017F00006AA314641E6002E3FF431AEF8E7BDF8C7
:101800001A2022B9012B284612D1FFF751FD002ED4
:101810003FF483AD314606AA2846FFF7D9FA0020E7
:1018200000F0EEF894F82730DE073FF576ADA0E63D
:10183000FFF720FDEBE79DF8181001F07F0408EB9F
:10184000440202EBD11292F8263023F0010382F811
:10185000263092F8263023F0040382F826303CB973
:10186000079B9DF819209DF8140000F0DDF854E561
:101870000E4B127D1B789A420DD2094B1B6813EB5D
:1018800042133FF481AD9C699DF81920079B9DF898
:101890001400A04741E57FF477AD024BF3E700BFAA
:1018A000B0010020CC030000C9010020AC010020E1
:1018B00098F80030D8077FF530AD98F80000C0F3F5
:1018C000C000FFF7A7FA28E598F80030D9077FF5A0
:1018D00024ADFFF7A0FA20E5069B002B3FF41DADD9
:1018E0000798984719E598F80330DA077FF515ADA2
:1018F0000698FFF786FA10E54FF0E023D3F8F03DA5
:10190000DB077FF50AAD00BE07E5002B7FF4A7AD2E
:10191000002659E7124B9989DA8970B58C1AA4B25E
:10192000054693F90000402C28BF402400280EDA19
:10193000914212D099680B48224601F07FFA80212B
:10194000084A23462846BDE87040FFF759BC91423B
:101950004FF00001F4D10A46F3E780210022F0E7BE
:1019600030020020F0010020C94300231A4601F094
:101970008001FFF745BC704730B4074C05460B4665
:1019800008684968224603C20022C4E902222846A8
:10199000197830BCFFF7E8BF30020020F8B5134ECD
:1019A0000C46054608684968B260374603C70021FF
:1019B000F181E1888B4228BF0B46B38189B14BB1DD
:1019C00042B94FF0E023D3F8F03DDB0700D500BE6D
:1019D000002005E02846FFF79DFF0028F1D00120F8
:1019E000F8BD21782846FFF7BFFFF6E73002002058
:1019F00002481422002101F0CFB900BF30020020BC
:101A0000014B1861704700BF3002002010B502463C
:101A1000044C00685168234603C30023C4E9023321
:101A200010BD00BF3002002070B5284C1E46237840
:101A3000C909B1EBD31F054613D03EB14FF0E023E7
:101A4000D3F8F03DDB073FD4002070BD2146FFF7FF
:101A500092FF23691BB122460321284698470120A3
:101A6000F3E794F90030A068002B05DB0028EBD0E9
:101A70001749324601F0E2F9A268E389324433445F
:101A8000A260E2889BB29A42E38101D03F2E17D830
:101A9000236933B921782846FFF766FF0028DED195
:101AA000CCE70221094A2846984701460028F1D18F
:101AB000284600F00FFC8021284600F00BFCCEE702
:101AC0002846FFF727FFE9E700BEBDE73002002008
:101AD000F0010020704701207047704770470000F8
:101AE00010B50C4BCC2202FB00335C78FFF794F965
:101AF00018B9002000F0010010BDFFF795F900288B
:101B0000F7D1002CF5D02146FFF7A6FB80F00100AD
:101B1000C0B2EFE7440200202DE9F0471A4ECC2571
:101B200005FB006A0746894600209AF80110904696
:101B30001C46FFF757FB18B355464C35B9F1000F5B
:101B400016D03F2C8AF84C9005F1010018D8224697
:101B5000414601F073F90134A4B2CC2303FB0760C2
:101B60002A46417823460020BDE8F047FFF748BBEE
:101B7000402C05D822464146284601F05FF9ECE7A3
:101B80000020BDE8F08700BF44020020012070471C
:101B90000248CC22002101F0FFB800BF440200201F
:101BA0000020FFF7F5BF0000F7B50D4607466B793B
:101BB000032B11460DD12A79C2EBC2061236B6B2FA
:101BC0008E420AD94FF0E023D3F8F03DDA0700D572
:101BD00000BE0026304603B0F0BD1E4C61780029DF
:101BE000F0D195F800C005EB0C0191F801E0BEF1D1
:101BF000210FE7D1A16015F80CC004F1010ECDF85A
:101C000004E004F1020ECDF800E06144FFF7BCFAF5
:101C10000028D7D0AB79A178012B04BFEB79E37012
:101C20000123A371AB782370A368B3F80730A380B6
:101C30000029CFD0084A40233846FFF7E1FA0028B0
:101C4000C8D14FF0E023D3F8F03DDB07C2D500BE8A
:101C5000C0E700BF44020020D0020020F7B51546BF
:101C600012780B4602F01F010129064657D1524C4B
:101C7000A9882778C9B28F4251D112F060021ED1D3
:101C8000012B72D169786B88062948D11B0A212B58
:101C900009D1A268002A42D01378294603B0BDE8D2
:101CA000F040FFF77BBE222B39D11046FEF77AFCBD
:101CB000A388024629463046FFF770FE55E0202AE9
:101CC0002DD16A78013A0A2A29D8DFE802F00661A4
:101CD0006528282828282E526900012B45D1EF8835
:101CE0006988402F4FEA1122384628BF402011F062
:101CF000FF0117D0012F15D9217301381C462F4B36
:101D000080B200900020FEF781FC23189BB28BB9B3
:101D10004FF0E023D3F8F03DDB0700D500BE0020F4
:101D200003B0F0BD264B0024EBE7012B04D1EB8878
:101D3000402BF4D8224ABDE7032B16D1EB886988E3
:101D4000402B4FEA1122184628BF402011F0FF0116
:101D50000DD0012B0BD9237B8B4208D10138174BB7
:101D600080B200900020FEF753FC0120D8E7144B0E
:101D7000F7E7012BF9D169880020090AE171FFF723
:101D8000AAFE0028CBD029463046FFF7F5FDECE748
:101D9000012BEAD10B4A8DE7012BE6D10A4A89E7EC
:101DA000012BF0D0032BE0D169880020C9B2A171CA
:101DB000FFF790FED9E700BF440200205102002047
:101DC000500200204B0200204A02002037B51D4D72
:101DD00004461046AA788A420BD06A788A4208D014
:101DE0004FF0E023D3F8F03DDB0700D500BE002024
:101DF00009E06A788A429BB20DD130B912491A467D
:101E0000FFF76BFE012003B030BD0F4A0121002017
:101E1000FFF764FEF6E770B9009302220B4B014610
:101E2000FEF7F6FB094AA97840232046FFF7E8F9B8
:101E30000028E7D1D4E7054A02210020FFF74EFE33
:101E4000F0E700BF4402002090020020D0020020F2
:101E500001230360BFF36F8FBFF34F8F064B984290
:101E600002D0043B984206D1BFF35B8F034B0022A4
:101E70001A70BFF35B8F704750700240300400202F
:101E800070B42A4ABFF35B8F01464FF00100D2E8DD
:101E90004F3FC2E8440F002CF9D1BFF35B8FDBB298
:101EA00053B1234B23485A68C2F30802003A70BC6E
:101EB00018BF0122FFF71AB908291F4B19D1D3F80F
:101EC000C014C80307D5BFF35B8F00231370BFF3A3
:101ED0005B8F70BC704712F8154C002CF3D052F891
:101EE000202C1648C3F8A027C3F8A41770BCFFF72E
:101EF000AFBF01F59470A2F5907253F8204002EB49
:101F00004110A4B2C6888088801B80B2A04228BF3E
:101F100020464D01142404FB01335259C3F8002715
:101F2000C3F80407064800EB8100DFE73004002017
:101F300000ED00E0451F00000070024048700240C4
:101F400028700240C0B2FFF79BBF000030B40F4AB8
:101F5000BFF35B8F01464FF00104D2E84F3FC2E868
:101F6000454F002DF9D1BFF35B8FDBB253B1084B66
:101F700008485A68C2F30802003A30BC18BF012270
:101F8000FFF7B4B830BCFFF763BF00BF30040020D8
:101F900000ED00E04D1F00000D4B03EB4013D98A0C
:101FA0009A8A521A198B92B28A4228BF0A46196934
:101FB0001423434303F1804303F51C33C3F8001695
:101FC000C3F80426034B03EB8000FFF7BFBF00BF3D
:101FD00010030020047002404FF08043D3F80C241B
:101FE000D3F80C0410F4803018BF02F001007047E1
:101FF00070470000014B80225A60704700E100E00A
:10200000044B8022C3F88420BFF34F8FBFF36F8F40
:10201000704700BF00E100E0074BD3F80014D3F88D
:1020200000240A43C3F800240022C3F858214FF4C7
:102030008002C3F80423704700700240084A094B2D
:1020400039B1012182F821114FF40012C3F80423A1
:10205000704782F821114FF40012C3F8082370472B
:10206000100300200070024070B58A788E88404CC2
:10207000C97802F07F03580000EBD21004EB001087
:1020800001F00301C6F30A0601294FEAD2150681C1
:1020900029D00120374900FA03F4D5B903F10C0621
:1020A000B040C1F80403D1F8140503F5947320433C
:1020B000C1F8140541F823502E4BC3F8182542F4FB
:1020C0008072C3F80C25BFF36F8FBFF34F8F0120D1
:1020D00013E002339840C1F80403D1F810352343CC
:1020E000C1F81035E8E7082B08D04FF0E023D3F80B
:1020F000F03DDB0700D500BE002070BD1D4BDDB9F3
:10210000B4F8182112B18022C3F81C250022C3F8AC
:102110005021D3F8002312F4001208BFC3F8542151
:10212000144B4FF44012C3F80423D3F8142542F49F
:102130008072C3F81425C6E70022C3F82C21B4F836
:10214000082112B18022C3F81C25D3F8002312F411
:10215000001208BFC3F85421064B074AC3F80423F2
:10216000D3F8102542F48072C3F81025ABE700BF06
:102170001003002000700240000820001F4B802246
:102180002DE9F041C3F88420BFF34F8FBFF36F8F69
:1021900001241B4DDFF86C80274604F10C03A21CC0
:1021A00007FA02F207FA03F31343C5F80833A30052
:1021B00003F1804303F51C3300265E6008EB4410F6
:1021C0009E6220223146013400F0E6FD082CE4D165
:1021D0000D4BC5F808332022C5F81C6531466E62E8
:1021E0000A48AE6400F0D8FDC5F81475C5F810753E
:1021F000024B80225A60BDE8F08100BF00E100E0A0
:10220000007002401003002000083000100400207D
:1022100001F07F00F0B52A4C450005EBD1154FEADF
:10222000051E04EB051585B0EF7ACE0907F0FF0C0B
:102230004FB14FF0E023D3F8F03DDB0700D500BEEF
:10224000002005B0F0BD44F80E20AB80A5F806C014
:10225000E8B9E3B91B4AD2F88024C2F3C012B242F3
:1022600015D0194A526803934FF4E060CDE9010399
:102270008DF80810C2F30801003901A818BF012128
:10228000FEF746FE1148FFF761FE0120D9E7A6B927
:1022900004EB40130122DA7208B90D48F3E7BFF3EB
:1022A0006F8FBFF34F8F9A7A002AEED0DA7A002A26
:1022B000EBD09E72FFF7E4FDE7E7FFF76DFEE4E782
:1022C000100300200070024000ED00E0507002405A
:1022D0004C70024011F07F0008B507D10D4B012270
:1022E0005A65BFF36F8FBFF34F8F08BD0828F8D032
:1022F000084B41F48072C909C3F81825F1D1064B87
:1023000003EB40139A7A002AEBD09972FFF7B8FDDD
:10231000E7E700BF007002401003002011F0770FC4
:1023200012D00A4B41F48072C3F80C15C3F80C2587
:10233000CA09C3F8181504BF01F5947143F82120A8
:10234000BFF36F8FBFF34F8F704700BF0070024025
:1023500008B5184B01220021C3F81425C3F8102535
:102360000A468B0003F1804303F51C330131082931
:102370005A609A62F5D10F4B5A629A64C3F8582199
:10238000D3F80014D3F800240A43C3F80024D3F888
:102390000023C3F80823084AC3F80423074B4FF46B
:1023A00092720021184600F0F7FC4022028302815D
:1023B00008BD00BF007002400514C00110030020DA
:1023C0002DE9F04FC34BC44AD3F80013002385B066
:1023D0001C4601201D4621FA03F6F6070BD552F8DC
:1023E000236046B100FA03F6344342F82350BFF3AA
:1023F0006F8FBFF34F8F0133192BECD1E30710D54B
:10240000FFF7A6FF0023012101A8CDF80630CDF883
:102410000A30ADF80E308DF804308DF80510FEF757
:1024200077FD14F4006FAD4D08D0AA4BD3F8A83651
:102430009BB2A5F81631012385F81C31A70204F4DC
:1024400080063BD5A34AD2F8143513F4807308D024
:102450001EB1D2F80034D80702D40820FFF710FDCF
:1024600001239C4AD2F81015C90540F1698195F8FD
:102470001C317BB1002385F81C31B5F816314FF4BF
:10248000E06C9BB28822012101A8CDE901C203932F
:10249000FEF73EFD8F4BD3F820250023CDF8063004
:1024A000CDF80A30ADF80E308DF804300121032349
:1024B00001A88DF805300292FEF72AFD002E40D0CB
:1024C000844BD3F8006440F201723240F705C3F840
:1024D000002412D50121C3F82C150023CDF80630B5
:1024E000CDF80A30ADF80E308DF8043004230DEB32
:1024F00003008DF80530FEF70BFD70050FD5754B09
:102500000122C3F808259A65D3F8002312F40012BB
:1025100008BFC3F854214FF40012C3F80423B105D7
:102520000FD50023CDF80630CDF80A30ADF80E30C7
:102530008DF804300121052301A88DF80530FEF740
:10254000E7FC220237D5634BD3F880E4D3F8842428
:10255000D3F88814D3F88C74D3F89064D3F8940427
:102560005FFA81FCD3F89814D3F89C341EF07F0FE7
:102570005FFA8EF8D2B2FFB2F6B2C0B2C9B2DBB225
:1025800001D1052A17D04FF4C06E8DF80D008DF8DB
:102590000E1001A80121CDF804E08DF808808DF817
:1025A00009208DF80AC08DF80B708DF80C608DF83D
:1025B0000F30FEF7ADFC4A4B234033B1BFF35B8FC6
:1025C000484B00221A70BFF35B8F444FDFF804A121
:1025D0000026B8464FF0140BB14606F10C0324FA5E
:1025E00003F3DB0726D50BFB06A3D8F80020D3F8AE
:1025F000083705EB461012FA83F2C8F80020B0F84D
:1026000006C099B263449BB2082E4FEA4612C380BB
:1026100000F0A380B8F808308B4240F09E80C38859
:10262000B8F804109BB2994240F2978016B92E4830
:10263000FFF78CFC0136092E08F12008CDD12B4B79
:102640002340002B00F09380224BD3F86C84C3F816
:102650006C84BFF36F8FBFF34F8F14F480641CBF83
:10266000D3F88044D3F88064DFF870B01DBF86F0E3
:102670008006C4F3C014C6F3C01626464FF0000906
:102680004FF0140A28FA09F1C90703D4B9F1000F71
:1026900030D17CB30F4B0AFB0931DBF81030D1F895
:1026A000081605EB491C53FA81F3CBF81030BCF83F
:1026B00016E01FFA8EFE5EFA81F189B2ACF81610B0
:1026C000BCF81610BBF814E089B28E455FFA89F0A9
:1026D00063D90DE000700240007102401003002039
:1026E000FCFB1F00300400204C700240000400017D
:1026F000FFF752FC09F10109B9F1080F0BF1200BAA
:10270000C0D100244FF0010904F1100328FA03F3AB
:10271000DB0701D474B96EB105EB44126301D17AC1
:1027200000294CD0D288B98892B2914247D9E0B200
:10273000FFF7A6FB0134082C07F12007E4D116E0CF
:10274000002B7FF4A7AE95F82131002B7FF4A2AEC9
:102750004FF40013C2F808339CE6AB18DA7A4AB992
:102760004FF0E023D3F8F03DD80700D500BE05B008
:10277000BDE8F08FDA88A8F8042083F80B90DB8896
:102780004FF4E0629BB2012101A8CDE90129039336
:102790008DF80860FEF7BCFB4CE7BCF816104FF450
:1027A000E06289B2002360F07F00CDE9012303914C
:1027B0008DF80800012101A8FEF7AAFB9AE72B4437
:1027C00083F80A90B6E700BF01287FB500F081804A
:1027D00002283AD0A0BB5A4BD3F8002582BB4FF455
:1027E0008002C3F808234FF40062C3F80024BFF34B
:1027F0006F8FBFF34F8F4FF08053D3F83031102BD2
:102800000CD1504BD3F8001C0322D9B949F27531D1
:10281000C3F8001CC3F8142DC3F8001C484B012159
:10282000C3F80015BFF36F8FBFF34F8FFFF7D4FBD3
:1028300030B94FF08043C3F80001D3F8002119608C
:1028400004B070BDC3F8142DE8E73D49D1F8043554
:102850001BB1FFF7C1FB0028F2D1D1F800341B05F2
:10286000FBD54FF40063C1F80034BFF36F8FBFF3A3
:102870004F8F4FF08053D3F83031102B0BD1314BA9
:10288000D3F8001C09BB49F27532C3F8002CC3F819
:10289000141DC3F8002C2A4C2B4E80250123C4F8AC
:1028A0001C55C4F80433C6F88451FEF7C5FA00B1CC
:1028B0007560FFF791FB0028FBD00123C4F80435B5
:1028C000BFF36F8FBFF34F8FBAE70022C3F8142D09
:1028D000E1E71B4AD2F80035002BB1D00023C2F843
:1028E0000435BFF36F8FBFF34F8F17498024C1F8B2
:1028F0008440BFF34F8FBFF36F8FD2F80013C2F83D
:102900000813C2F80035BFF36F8FBFF34F8F4FF03E
:10291000804250600D4A5168CDF80630C1F308017D
:102920000039CDF80A30ADF80E308DF8043018BFFC
:102930000121022301A88DF80530FEF7E9FA7FE7AF
:102940000070024000E0064000E100E000ED00E021
:10295000024AD2F80034002BFBD0704700E001405F
:102960004FF0805310B5D3F83021102A55D14FF0D5
:1029700080410022C1F80C21C1F81021C1F838258E
:10298000474AD3F80404C2F82005D3F80804C2F873
:102990002405D3F80C04C2F82805D3F81004C2F8B3
:1029A0002C05D3F81404C2F83005D3F81804C2F883
:1029B0003405D3F81C04C2F84005D3F82004C2F84B
:1029C0004405D3F82404C2F84805D3F82804C2F813
:1029D0004C05D3F82C04C2F85005D3F83004C2F8E3
:1029E0005405D3F83404C2F86005D3F83804C2F8AB
:1029F0006405D3F83C04C2F86805D3F84004C2F873
:102A00006C05D3F84434C2F87035D1F80034DB07D4
:102A100009D56FF00103C1F800344FF08053D3F8AB
:102A20003031102B0DD14FF08053D3F83431022BBD
:102A300081BF4FF01023D3F808224FF08043C3F832
:102A400058254FF01023D3F80022002A03DBD3F8D7
:102A50000432002B22DA134901234FF01020C1F871
:102A600004351224FFF774FFC0F80042FFF770FF2F
:102A7000C0F80442FFF76CFF0023C1F80435FFF7EC
:102A800067FFBFF34F8F0849084BCA6802F4E06242
:102A90001343CB60BFF34F8F00BFFDE710BD00BFF6
:102AA00000C0004000E0014000ED00E00400FA0535
:102AB00000F180431A68002A1FBF00221A601B68B9
:102AC000012008BF002070470D4A1378ABB9037886
:102AD0004FF0804103F00103C1F87835094B1968C4
:102AE000C90706D4E02183F800130121C3F880113F
:102AF000196001230448137070470448704700BFF1
:102B00004004002000E100E00000AD0B0C00AD0B24
:102B10004FF080434FF46072C3F804237047000005
:102B20004FF080434FF46072C3F80823014B00223A
:102B30001A6070473404002008B5FFF7F1FF0368FE
:102B40000BB1014A136008BD340400204FF08043EC
:102B500010B5D3F80443620707D54FF48470FFF72C
:102B6000A7FF10B11E4B1B689847A30608D54FF46A
:102B70008A70FFF79DFF18B11A4B00201B68984719
:102B8000600608D54FF48C70FFF792FF18B1154B13
:102B900001201B689847210608D54FF48E70FFF777
:102BA00087FF18B1104B00201B689847E20508D535
:102BB0004FF49070FFF77CFF18B10B4B01201B689E
:102BC0009847A3050AD54FF49270FFF771FF28B11B
:102BD000054BBDE810401B680220184710BD00BF20
:102BE0003C040020380400203404002019491A4A0B
:102BF0001A4B00F010F81A491A4A1B4B00F00BF858
:102C00001A491B4A1B4B00F006F81B491B4A1C4B78
:102C100000F001F806E0521A03DD043A9858885093
:102C2000FBDC70471749184A00F009F81749184AA1
:102C300000F005F81749184A00F001F806E00020F6
:102C4000521A02DD043A8850FCDC7047FFF788FE18
:102C5000FDF7E4FB00000020180000201830000001
:102C6000180000201800002030300000180000205C
:102C7000180000203030000018000020180000204C
:102C800030300000180000204404002044040020DC
:102C9000440400204404002044040020FEE7FEE732
:102CA000FEE7FEE7FEE7FEE7FEE7FEE7FEE7FEE7FC
:102CB0000000000000000000000000000000000014
:102CC00030B490F800F020F007016FF0000C10F025
:102CD000070491F820F040F048804FF000046FF0B6
:102CE0000700D1E9002391F840F000F1080082FAD2
:102CF0004CF2A4FA8CF283FA4CF3A2FA8CF34BBB9D
:102D0000D1E9022382FA4CF200F10800A4FA8CF215
:102D100083FA4CF3A2FA8CF3E3B9D1E9042382FAE3
:102D20004CF200F10800A4FA8CF283FA4CF3A2FAF8
:102D30008CF37BB9D1E9062301F1200182FA4CF230
:102D400000F10800A4FA8CF283FA4CF3A2FA8CF397
:102D5000002BC6D0002A04BF04301A4612BAB2FAB9
:102D600082F200EBD20030BC7047D1E9002304F0BE
:102D70000305C4F100004FEAC50514F0040F91F8F3
:102D800040F00CFA05F562EA05021CBF63EA050390
:102D900062464FF00004AAE7830730B547D0541EBF
:102DA000002A3ED0CAB2034601E0013C39D303F801
:102DB000012B9D07F9D1032C2CD9CDB205EB0525AC
:102DC0000F2C05EB054535D9A4F1100222F00F0CAC
:102DD00003F1100EE6444FEA121C1A46C2E90055F0
:102DE000C2E9025510327245F8D10CF1010214F01B
:102DF0000C0F03EB021204F00F0C13D0ACF1040320
:102E000023F003030433134442F8045B9342FBD1E1
:102E10000CF003042CB1C9B21C4403F8011BA342FB
:102E2000FBD130BD64461346002CF4D1F9E70346CC
:102E30001446C0E71A46A446E0E700BF844641EACC
:102E4000000313F003036DD1403A41D351F8043B22
:102E500040F8043B51F8043B40F8043B51F8043B74
:102E600040F8043B51F8043B40F8043B51F8043B64
:102E700040F8043B51F8043B40F8043B51F8043B54
:102E800040F8043B51F8043B40F8043B51F8043B44
:102E900040F8043B51F8043B40F8043B51F8043B34
:102EA00040F8043B51F8043B40F8043B51F8043B24
:102EB00040F8043B51F8043B40F8043B51F8043B14
:102EC00040F8043B51F8043B40F8043B403ABDD283
:102ED000303211D351F8043B40F8043B51F8043B25
:102EE00040F8043B51F8043B40F8043B51F8043BE4
:102EF00040F8043B103AEDD20C3205D351F8043BB4
:102F000040F8043B043AF9D2043208D0D2071CBF7F
:102F100011F8013B00F8013B01D30B8803806046A8
:102F2000704700BF082A13D38B078DD010F003031E
:102F30008AD0C3F10403D21ADB071CBF11F8013B8E
:102F400000F8013B80D331F8023B20F8023B7BE7DD
:102F5000043AD9D3013A11F8013B00F8013BF9D208
:102F60000B7803704B7843708B78837060467047A2
:102F70001000000000000000017A5200027C0E01E7
:102F80001B0C0D001C0000001800000034FDFFFFAA
:102F9000D800000000410E088501840202490A4A57
:102FA000C5C4410B1000000000000000017A52006F
:102FB000027C0E011B0C0D00140000001800000024
:102FC0007CFEFFFF340100000002710A430B000089
:102FD0001830000000000020060000003030000023
:102FE0001800002000000000303000001800002011
:102FF0000000000030300000180000200000000039
:10300000180000200B010000440400200000000014
:08301000440400200000000050
:10301800ED0D0000E800002010000C00000000008A
:08302800FF0000000090D0033E
:0400000300002BEDE1
:00000001FF
